:10086700C290D291D296C297D2B7C2B6C2B5D2B40D
:01087700225E
:10087800C290D291D296C297C2B7D2B6D2B5C2B4FC
:01088800224D
:10088900D290C291C296D297D2B7C2B6C2B5D2B4EB
:01089900223C
:10089A00C290C291C296C297C2B7C2B6C2B5C2B41A
:0108AA00222B
:0E08AB0000007F3D7EE17D3EDDFEDEFCDFFADB
:0108B900221C
:0E08BA0000007F047E0C7D32DDFEDEFCDFFAE6
:0108C800220D
:10085200D2AFD2A9538E7F5389F0758AE0758CB1DD
:05086200C28DD28C22C2
:0B08D500D2AFD2A8D2AAC289C28B22E7
:10080000E4F592F591F5B2F5B11208D5120852123D
:100810000878F50B120867E4F508F5091208AB052E
:0C082000080509E509C3940B40F280E8CC
:030013000208E000
:0908E00030B305120878D28B3206
:030003000208E907
:0908E90030B205120889D28932EF
:03000B0002082CBC
:10082C00C0E0C0D0758AC0758CE0050BE50BC39594
:10083C00085005120867800312089A750B0B750B8C
:06084C0000D0D0D0E03224
:030000000208C92A
:0C08C900787FE4F6D8FD75810B02080072
:00000001FF
